:10000000E6C00000F4C00000F2C00000F0C0000034
:10001000EEC00000ECC00000EAC00000E8C0000034
:10002000E6C00000E4C00000CCC1000009C200002E
:10003000DEC00000DCC00000DAC00000D8C0000054
:10004000D6C00000D4C00000D2C00000D0C0000064
:10005000CEC00000CCC00000CAC00000C8C0000074
:10006000C6C00000C4C00000C2C00000C0C0000084
:10007000BEC00000BCC00000BAC00000B8C0000094
:10008000B6C00000B4C00000B2C00000B0C00000A4
:10009000AEC00000ACC000004284A4830124C304AD
:1000A0000274A344C282E364D4430381231463949F
:1000B000B4C40A000A002064697400206461680006
:1000C0004368617220000A004F7070732C20756EB7
:1000D000737570706F7274656420636861726163B8
:1000E0007465723A200053706163650A00444F459D
:1000F0005320414E59424F4459205354494C4C20AF
:100100004B4E4F57204D4F52534520434F44453F90
:100110000000010000480112000200005A01220004
:100120002200007C0115002100006C010900030081
:10013000009101040103090495011402030904ABB1
:100140000120000001C12600120100020000002071
:10015000C016790400010102000109022200010118
:1001600000C0320904000001030000000921110150
:100170000001221500070583032000010631FF0955
:1001800074A1537508150026FF009520097581029A
:10019000C004030904140359006F007500720020A5
:1001A000004E0061006D0065000000200359006FE3
:1001B00000750072002000550053004200200044EA
:1001C00000650076006900630065000000001124EE
:1001D0001FBECFEFD0E2DEBFCDBF11E0A0E0B1E0A7
:1001E00001C01D92A330B107E1F774D098C208CFC7
:1001F0000F931F93182F803259F486EE90E07BD234
:100200008FEF97E5ABE181509040A040E1F74DC002
:1002100081548A3148F088EC90E06DD2812F8BD0E8
:1002200086EC90E068D243C080EC90E064D2812FED
:1002300082D08AE380D0E12FF0E0E95AFF4F149199
:10024000012F077026C05E9A17FF0BC08BEB90E062
:1002500052D28FEF97EBABE081509040A040E1F796
:100260000AC086EB90E047D28FEF97EEA3E0815073
:100270009040A040E1F700C000005E988FEF97EE3D
:10028000A3E081509040A040E1F700C00000110FB2
:1002900001500023C1F684EB90E02DD28FEF9FEC4C
:1002A000A7E081509040A040E1F700C000001F91FE
:1002B0000F910895CF93DF93EC01FE012196849175
:1002C000882311F095DFF9CF82EB90E014D2DF9113
:1002D000CF91089580E88093610010926100569A52
:1002E0005E9812D08DEE90E0E5DF8FEF9FE4A3ECF7
:1002F00081509040A040E1F700C00000F3CF809112
:10030000E80080FFFCCF089581E88093D70080EA61
:100310008093D80086E189BD09B400FEFDCF80E955
:100320008093D8001092E000109200018CE080933E
:10033000E2007894089590910001992309F43DC05A
:100340009FB7F89423E02093E90020910201222333
:1003500041F02091E80025FD02C09FBF2EC0109201
:1003600002012091E4002C5F33E04091E80045FD5C
:1003700012C09FBF9091E400921721F481E0809316
:1003800002011BC0909100019923C9F09FB7F89416
:100390003093E900EACF8093F1008091E80085FD79
:1003A00006C08AE38093E8001092010103C082E056
:1003B000809301019FBF80E008958FEF08958FEF34
:1003C00008951F920F920FB60F9211248F939F934F
:1003D0008091E1001092E10083FF0FC01092E900CC
:1003E00091E09093EB001092EC0092E29093ED007C
:1003F00098E09093F0001092000182FF1AC0809163
:1004000000018823B1F080910101882391F081508F
:1004100080930101882369F483E08093E90002C09E
:100420001092F1008091E80085FDFACF8AE3809375
:10043000E8009F918F910F900FBE0F901F9018951D
:100440001F920F920FB60F920BB60F921124EF92DC
:10045000FF920F931F932F933F934F935F936F934D
:100460007F938F939F93AF93BF93EF93FF93DF930C
:10047000CF930F92CDB7DEB71092E9008091E800DC
:1004800083FF1CC14091F1005091F1000091F100F7
:1004900010E02091F100922F80E0082B192B809121
:1004A000F100E82EFF242091F100922F80E0E82A4D
:1004B000F92A2091F10030E06091F100962F80E060
:1004C000282B392B82EF8093E800563009F053C077
:1004D00088E191E0AC0145505040FC0137976591AF
:1004E000749160177107C9F4FA01659174916E15E2
:1004F0007F0599F44E5F5F4FFA01859194914E5FAD
:100500005F4FFA0144912F3F310519F010F02FEFA2
:1005100030E0241750F4422F08C00796495F5F4F20
:10052000F1E089349F07C9F6C9C0AEEF2091E80019
:1005300030E0B9016570707061157105B9F322FD85
:10054000C0C0542F413208F050E29C01652F07C013
:10055000F9012F5F3F4FE491E093F1006150662372
:10056000B9F7850F911D451BA093E8004423F1F6D0
:100570005032E1F2A6C0553041F48EEF8093E8008E
:10058000BEDE00680093E3009CC0593031F544237F
:1005900009F094C0009300018EEF8093E80041E0E1
:1005A00082E491E04093E900FC010196E491E0933C
:1005B000EB00EE2369F09C012F5F3F4FFC0184911B
:1005C0008093EC00C9010196F90124912093ED007C
:1005D0004F5F453039F78EE146C0583049F4403816
:1005E00009F06CC08CDE809100018093F10016C090
:1005F0005523C1F4498383DE4981423851F4E092A6
:10060000E9009091EB0081E095FF80E01092E90015
:1006100001C080E08093F1001092F1008EEF809392
:10062000E8004FC0513019F0533009F047C0423054
:10063000F9F401151105E1F46E2D6F77862F8150C5
:100640008430B0F48EEF8093E8006093E90053307B
:10065000A9F189E18093EB0081E090E002C0880F6E
:10066000991F6A95E2F78093EA001092EA0029C088
:10067000513021F5413A11F5E114F104F9F43EEF5E
:100680008091E80090E0AC01457050704115510533
:10069000B9F382FD16C0822F213208F080E2982F34
:1006A00003C01092F10091509923D9F7281B309381
:1006B000E800222329F7803219F303C081E28093F6
:1006C000EB000F90CF91DF91FF91EF91BF91AF9130
:1006D0009F918F917F916F915F914F913F912F915A
:1006E0001F910F91FF90EF900F900BBE0F900FBED8
:1006F0000F901F9018951F93CF93DF93EC01FE018D
:1007000021961491112339F01A3011F48DE013DE83
:10071000812F11DEF4CFDF91CF911F910895F894CE
:02072000FFCF09
:00000001FF
